{"abi":[{"type":"constructor","inputs":[{"name":"_owner","type":"address","internalType":"address"}],"stateMutability":"nonpayable"},{"type":"function","name":"_owned","inputs":[{"name":"","type":"address","internalType":"address"},{"name":"","type":"uint256","internalType":"uint256"}],"outputs":[{"name":"","type":"uint256","internalType":"uint256"}],"stateMutability":"view"},{"type":"function","name":"_ownedIndex","inputs":[{"name":"","type":"uint256","internalType":"uint256"}],"outputs":[{"name":"","type":"uint256","internalType":"uint256"}],"stateMutability":"view"},{"type":"function","name":"_ownerOf","inputs":[{"name":"","type":"uint256","internalType":"uint256"}],"outputs":[{"name":"","type":"address","internalType":"address"}],"stateMutability":"view"},{"type":"function","name":"allowance","inputs":[{"name":"","type":"address","internalType":"address"},{"name":"","type":"address","internalType":"address"}],"outputs":[{"name":"","type":"uint256","internalType":"uint256"}],"stateMutability":"view"},{"type":"function","name":"approve","inputs":[{"name":"spender","type":"address","internalType":"address"},{"name":"amountOrId","type":"uint256","internalType":"uint256"}],"outputs":[{"name":"","type":"bool","internalType":"bool"}],"stateMutability":"nonpayable"},{"type":"function","name":"balanceOf","inputs":[{"name":"","type":"address","internalType":"address"}],"outputs":[{"name":"","type":"uint256","internalType":"uint256"}],"stateMutability":"view"},{"type":"function","name":"baseTokenURI","inputs":[],"outputs":[{"name":"","type":"string","internalType":"string"}],"stateMutability":"view"},{"type":"function","name":"dataURI","inputs":[],"outputs":[{"name":"","type":"string","internalType":"string"}],"stateMutability":"view"},{"type":"function","name":"decimals","inputs":[],"outputs":[{"name":"","type":"uint8","internalType":"uint8"}],"stateMutability":"view"},{"type":"function","name":"getApproved","inputs":[{"name":"","type":"uint256","internalType":"uint256"}],"outputs":[{"name":"","type":"address","internalType":"address"}],"stateMutability":"view"},{"type":"function","name":"getOwned","inputs":[{"name":"owner","type":"address","internalType":"address"}],"outputs":[{"name":"","type":"uint256[]","internalType":"uint256[]"}],"stateMutability":"view"},{"type":"function","name":"isApprovedForAll","inputs":[{"name":"","type":"address","internalType":"address"},{"name":"","type":"address","internalType":"address"}],"outputs":[{"name":"","type":"bool","internalType":"bool"}],"stateMutability":"view"},{"type":"function","name":"minted","inputs":[],"outputs":[{"name":"","type":"uint256","internalType":"uint256"}],"stateMutability":"view"},{"type":"function","name":"name","inputs":[],"outputs":[{"name":"","type":"string","internalType":"string"}],"stateMutability":"view"},{"type":"function","name":"owner","inputs":[],"outputs":[{"name":"","type":"address","internalType":"address"}],"stateMutability":"view"},{"type":"function","name":"ownerOf","inputs":[{"name":"id","type":"uint256","internalType":"uint256"}],"outputs":[{"name":"owner","type":"address","internalType":"address"}],"stateMutability":"view"},{"type":"function","name":"renounceOwnership","inputs":[],"outputs":[],"stateMutability":"nonpayable"},{"type":"function","name":"safeTransferFrom","inputs":[{"name":"from","type":"address","internalType":"address"},{"name":"to","type":"address","internalType":"address"},{"name":"id","type":"uint256","internalType":"uint256"}],"outputs":[],"stateMutability":"nonpayable"},{"type":"function","name":"safeTransferFrom","inputs":[{"name":"from","type":"address","internalType":"address"},{"name":"to","type":"address","internalType":"address"},{"name":"id","type":"uint256","internalType":"uint256"},{"name":"data","type":"bytes","internalType":"bytes"}],"outputs":[],"stateMutability":"nonpayable"},{"type":"function","name":"setApprovalForAll","inputs":[{"name":"operator","type":"address","internalType":"address"},{"name":"approved","type":"bool","internalType":"bool"}],"outputs":[],"stateMutability":"nonpayable"},{"type":"function","name":"setDataURI","inputs":[{"name":"_dataURI","type":"string","internalType":"string"}],"outputs":[],"stateMutability":"nonpayable"},{"type":"function","name":"setTokenURI","inputs":[{"name":"_tokenURI","type":"string","internalType":"string"}],"outputs":[],"stateMutability":"nonpayable"},{"type":"function","name":"setWhitelist","inputs":[{"name":"target","type":"address","internalType":"address"},{"name":"state","type":"bool","internalType":"bool"}],"outputs":[],"stateMutability":"nonpayable"},{"type":"function","name":"symbol","inputs":[],"outputs":[{"name":"","type":"string","internalType":"string"}],"stateMutability":"view"},{"type":"function","name":"tokenURI","inputs":[{"name":"id","type":"uint256","internalType":"uint256"}],"outputs":[{"name":"","type":"string","internalType":"string"}],"stateMutability":"view"},{"type":"function","name":"totalSupply","inputs":[],"outputs":[{"name":"","type":"uint256","internalType":"uint256"}],"stateMutability":"view"},{"type":"function","name":"transfer","inputs":[{"name":"to","type":"address","internalType":"address"},{"name":"amount","type":"uint256","internalType":"uint256"}],"outputs":[{"name":"","type":"bool","internalType":"bool"}],"stateMutability":"nonpayable"},{"type":"function","name":"transferFrom","inputs":[{"name":"from","type":"address","internalType":"address"},{"name":"to","type":"address","internalType":"address"},{"name":"amountOrId","type":"uint256","internalType":"uint256"}],"outputs":[],"stateMutability":"nonpayable"},{"type":"function","name":"transferOwnership","inputs":[{"name":"newOwner","type":"address","internalType":"address"}],"outputs":[],"stateMutability":"nonpayable"},{"type":"function","name":"whitelist","inputs":[{"name":"","type":"address","internalType":"address"}],"outputs":[{"name":"","type":"bool","internalType":"bool"}],"stateMutability":"view"},{"type":"event","name":"Approval","inputs":[{"name":"owner","type":"address","indexed":true,"internalType":"address"},{"name":"spender","type":"address","indexed":true,"internalType":"address"},{"name":"amount","type":"uint256","indexed":false,"internalType":"uint256"}],"anonymous":false},{"type":"event","name":"ApprovalForAll","inputs":[{"name":"owner","type":"address","indexed":true,"internalType":"address"},{"name":"operator","type":"address","indexed":true,"internalType":"address"},{"name":"approved","type":"bool","indexed":false,"internalType":"bool"}],"anonymous":false},{"type":"event","name":"ERC20Transfer","inputs":[{"name":"from","type":"address","indexed":true,"internalType":"address"},{"name":"to","type":"address","indexed":true,"internalType":"address"},{"name":"amount","type":"uint256","indexed":false,"internalType":"uint256"}],"anonymous":false},{"type":"event","name":"ERC721Approval","inputs":[{"name":"owner","type":"address","indexed":true,"internalType":"address"},{"name":"spender","type":"address","indexed":true,"internalType":"address"},{"name":"id","type":"uint256","indexed":true,"internalType":"uint256"}],"anonymous":false},{"type":"event","name":"OwnershipTransferred","inputs":[{"name":"previousOwner","type":"address","indexed":true,"internalType":"address"},{"name":"newOwner","type":"address","indexed":true,"internalType":"address"}],"anonymous":false},{"type":"event","name":"Transfer","inputs":[{"name":"from","type":"address","indexed":true,"internalType":"address"},{"name":"to","type":"address","indexed":true,"internalType":"address"},{"name":"id","type":"uint256","indexed":true,"internalType":"uint256"}],"anonymous":false},{"type":"error","name":"AlreadyExists","inputs":[]},{"type":"error","name":"InvalidRecipient","inputs":[]},{"type":"error","name":"InvalidSender","inputs":[]},{"type":"error","name":"NotFound","inputs":[]},{"type":"error","name":"OwnableInvalidOwner","inputs":[{"name":"owner","type":"address","internalType":"address"}]},{"type":"error","name":"OwnableUnauthorizedAccount","inputs":[{"name":"account","type":"address","internalType":"address"}]},{"type":"error","name":"Unauthorized","inputs":[]},{"type":"error","name":"UnsafeRecipient","inputs":[]}],"bytecode":{"object":"0x60c06040523480156200001157600080fd5b5060405162001e4938038062001e49833981016040819052620000349162000177565b60408051808201825260088152674d6f6e614c69736160c01b602080830191909152825180840190935260058352644d4e4c534160d81b9083015290601261271084806001600160a01b038116620000a657604051631e4fbdf760e01b81526000600482015260240160405180910390fd5b620000b18162000127565b506001620000c0868262000250565b506002620000cf858262000250565b5060ff83166080819052620000e690600a62000431565b620000f2908362000442565b60a0525050506001600160a01b03909216600090815260046020526040902069021e19e0c9bab24000009055506200045c9050565b600080546001600160a01b038381166001600160a01b0319831681178455604051919092169283917f8be0079c531659141344cd1fd0a4f28419497f9722a3daafe3b4186f6b6457e09190a35050565b6000602082840312156200018a57600080fd5b81516001600160a01b0381168114620001a257600080fd5b9392505050565b634e487b7160e01b600052604160045260246000fd5b600181811c90821680620001d457607f821691505b602082108103620001f557634e487b7160e01b600052602260045260246000fd5b50919050565b601f8211156200024b576000816000526020600020601f850160051c81016020861015620002265750805b601f850160051c820191505b81811015620002475782815560010162000232565b5050505b505050565b81516001600160401b038111156200026c576200026c620001a9565b62000284816200027d8454620001bf565b84620001fb565b602080601f831160018114620002bc5760008415620002a35750858301515b600019600386901b1c1916600185901b17855562000247565b600085815260208120601f198616915b82811015620002ed57888601518255948401946001909101908401620002cc565b50858210156200030c5787850151600019600388901b60f8161c191681555b5050505050600190811b01905550565b634e487b7160e01b600052601160045260246000fd5b600181815b80851115620003735781600019048211156200035757620003576200031c565b808516156200036557918102915b93841c939080029062000337565b509250929050565b6000826200038c575060016200042b565b816200039b575060006200042b565b8160018114620003b45760028114620003bf57620003df565b60019150506200042b565b60ff841115620003d357620003d36200031c565b50506001821b6200042b565b5060208310610133831016604e8410600b841016171562000404575081810a6200042b565b62000410838362000332565b80600019048211156200042757620004276200031c565b0290505b92915050565b6000620001a260ff8416836200037b565b80820281158282048414176200042b576200042b6200031c565b60805160a0516119c06200048960003960006102660152600081816102e30152610ee701526119c06000f3fe608060405234801561001057600080fd5b50600436106101da5760003560e01c80637c68859711610104578063c34eb1c4116100a2578063e0df5b6f11610071578063e0df5b6f14610498578063e985e9c5146104ab578063f28ca1dd146104d9578063f2fde38b146104e157600080fd5b8063c34eb1c41461043f578063c87b56dd14610452578063d547cfb714610465578063dd62ed3e1461046d57600080fd5b80639b19251a116100de5780639b19251a146103e3578063a22cb46514610406578063a9059cbb14610419578063b88d4fde1461042c57600080fd5b80637c688597146103aa5780638da5cb5b146103ca57806395d89b41146103db57600080fd5b8063313ce5671161017c57806353d6fd591161014b57806353d6fd591461035c5780636352211e1461036f57806370a0823114610382578063715018a6146103a257600080fd5b8063313ce567146102de578063383505411461031757806342842e0e146103405780634f02c4201461035357600080fd5b806318160ddd116101b857806318160ddd1461026157806318d217c31461029657806323b872dd146102ab57806327bcf48f146102be57600080fd5b806306fdde03146101df578063081812fc146101fd578063095ea7b31461023e575b600080fd5b6101e76104f4565b6040516101f49190611343565b60405180910390f35b61022661020b366004611392565b6006602052600090815260409020546001600160a01b031681565b6040516001600160a01b0390911681526020016101f4565b61025161024c3660046113c2565b610582565b60405190151581526020016101f4565b6102887f000000000000000000000000000000000000000000000000000000000000000081565b6040519081526020016101f4565b6102a96102a4366004611402565b6106d3565b005b6102a96102b93660046114b3565b6106eb565b6102886102cc366004611392565b600a6020526000908152604090205481565b6103057f000000000000000000000000000000000000000000000000000000000000000081565b60405160ff90911681526020016101f4565b610226610325366004611392565b6008602052600090815260409020546001600160a01b031681565b6102a961034e3660046114b3565b610a74565b61028860035481565b6102a961036a3660046114ef565b610b49565b61022661037d366004611392565b610b7c565b61028861039036600461152b565b60046020526000908152604090205481565b6102a9610bb7565b6103bd6103b836600461152b565b610bcb565b6040516101f49190611546565b6000546001600160a01b0316610226565b6101e7610c37565b6102516103f136600461152b565b600b6020526000908152604090205460ff1681565b6102a96104143660046114ef565b610c44565b6102516104273660046113c2565b610cb0565b6102a961043a36600461158a565b610cc4565b61028861044d3660046113c2565b610d87565b6101e7610460366004611392565b610db8565b6101e7610e42565b61028861047b366004611625565b600560209081526000928352604080842090915290825290205481565b6102a96104a6366004611402565b610e4f565b6102516104b9366004611625565b600760209081526000928352604080842090915290825290205460ff1681565b6101e7610e63565b6102a96104ef36600461152b565b610e70565b6001805461050190611658565b80601f016020809104026020016040519081016040528092919081815260200182805461052d90611658565b801561057a5780601f1061054f5761010080835404028352916020019161057a565b820191906000526020600020905b81548152906001019060200180831161055d57829003601f168201915b505050505081565b600060035482111580156105965750600082115b1561066d576000828152600860205260409020546001600160a01b03163381148015906105e757506001600160a01b038116600090815260076020908152604080832033845290915290205460ff16155b15610604576040516282b42960e81b815260040160405180910390fd5b60008381526006602090815260409182902080546001600160a01b0319166001600160a01b038881169182179092559251868152908416917f8c5be1e5ebec7d5bd14f71427d1e84f3dd0314c0f7b2291e5b200ac8c7c3b925910160405180910390a3506106c9565b3360008181526005602090815260408083206001600160a01b03881680855290835292819020869055518581529192917f8c5be1e5ebec7d5bd14f71427d1e84f3dd0314c0f7b2291e5b200ac8c7c3b925910160405180910390a35b5060015b92915050565b6106db610eb3565b600c6106e782826116e2565b5050565b6003548111610a05576000818152600860205260409020546001600160a01b0384811691161461072e57604051636edaef2f60e11b815260040160405180910390fd5b6001600160a01b03821661075557604051634e46966960e11b815260040160405180910390fd5b336001600160a01b0384161480159061079257506001600160a01b038316600090815260076020908152604080832033845290915290205460ff16155b80156107b557506000818152600660205260409020546001600160a01b03163314155b156107d2576040516282b42960e81b815260040160405180910390fd5b6107da610ee0565b6001600160a01b038416600090815260046020526040812080549091906108029084906117b8565b909155506108109050610ee0565b6001600160a01b03808416600081815260046020908152604080832080549096019095558582526008815284822080546001600160a01b03199081169094179055600681528482208054909316909255918616825260099052908120805461087a906001906117b8565b8154811061088a5761088a6117cb565b60009182526020808320909101546001600160a01b0387168352600982526040808420868552600a909352909220548154929350839281106108ce576108ce6117cb565b60009182526020808320909101929092556001600160a01b0386168152600990915260409020805480610903576109036117e1565b600082815260208082208301600019908101839055909201909255838252600a8152604080832054848452818420556001600160a01b03861680845260098352908320805460018181018355828652938520018690559252905461096791906117b8565b6000838152600a602052604080822092909255905183916001600160a01b0380871692908816917fddf252ad1be2c89b69c2b068fc378daa952ba7f163c4a11628f55a4df523b3ef91a4826001600160a01b0316846001600160a01b03167fe59fdd36d0d223c0c7d996db7ad796880f45e1936cb0bb7ac102e7082e0314876109ee610ee0565b60405190815260200160405180910390a350505050565b6001600160a01b03831660009081526005602090815260408083203384529091529020546000198114610a6157610a3c82826117b8565b6001600160a01b03851660009081526005602090815260408083203384529091529020555b610a6c848484610f12565b50505b505050565b610a7f8383836106eb565b6001600160a01b0382163b15801590610b2b5750604051630a85bd0160e11b8082523360048301526001600160a01b03858116602484015260448301849052608060648401526000608484015290919084169063150b7a029060a4016020604051808303816000875af1158015610afa573d6000803e3d6000fd5b505050506040513d601f19601f82011682018060405250810190610b1e91906117f7565b6001600160e01b03191614155b15610a6f57604051633da6393160e01b815260040160405180910390fd5b610b51610eb3565b6001600160a01b03919091166000908152600b60205260409020805460ff1916911515919091179055565b6000818152600860205260409020546001600160a01b031680610bb25760405163c5723b5160e01b815260040160405180910390fd5b919050565b610bbf610eb3565b610bc960006110c0565b565b6001600160a01b038116600090815260096020908152604091829020805483518184028101840190945280845260609392830182828015610c2b57602002820191906000526020600020905b815481526020019060010190808311610c17575b50505050509050919050565b6002805461050190611658565b3360008181526007602090815260408083206001600160a01b03871680855290835292819020805460ff191686151590811790915590519081529192917f17307eab39ab6107e8899845ad3d59bd9653f200f220920489ca2b5937696c31910160405180910390a35050565b6000610cbd338484610f12565b9392505050565b610ccf8585856106eb565b6001600160a01b0384163b15801590610d695750604051630a85bd0160e11b808252906001600160a01b0386169063150b7a0290610d199033908a90899089908990600401611821565b6020604051808303816000875af1158015610d38573d6000803e3d6000fd5b505050506040513d601f19601f82011682018060405250810190610d5c91906117f7565b6001600160e01b03191614155b15610a6c57604051633da6393160e01b815260040160405180910390fd5b60096020528160005260406000208181548110610da357600080fd5b90600052602060002001600091509150505481565b6060600d8054610dc790611658565b80601f0160208091040260200160405190810160405280929190818152602001828054610df390611658565b8015610c2b5780601f10610e1557610100808354040283529160200191610c2b565b820191906000526020600020905b815481529060010190602001808311610e235750939695505050505050565b600d805461050190611658565b610e57610eb3565b600d6106e782826116e2565b600c805461050190611658565b610e78610eb3565b6001600160a01b038116610ea757604051631e4fbdf760e01b8152600060048201526024015b60405180910390fd5b610eb0816110c0565b50565b6000546001600160a01b03163314610bc95760405163118cdaa760e01b8152336004820152602401610e9e565b6000610f0d7f0000000000000000000000000000000000000000000000000000000000000000600a611959565b905090565b600080610f1d610ee0565b6001600160a01b038087166000818152600460205260408082208054948a1683529082205492825293945091929091869190610f5983866117b8565b90915550506001600160a01b03808716600090815260046020908152604080832080548a019055928a168252600b9052205460ff16610feb576001600160a01b038716600090815260046020526040812054610fb6908590611968565b610fc08585611968565b610fca91906117b8565b905060005b81811015610fe857610fe089611110565b600101610fcf565b50505b6001600160a01b0386166000908152600b602052604090205460ff166110665760006110178483611968565b6001600160a01b03881660009081526004602052604090205461103b908690611968565b61104591906117b8565b905060005b818110156110635761105b88611238565b60010161104a565b50505b856001600160a01b0316876001600160a01b03167fe59fdd36d0d223c0c7d996db7ad796880f45e1936cb0bb7ac102e7082e031487876040516110ab91815260200190565b60405180910390a35060019695505050505050565b600080546001600160a01b038381166001600160a01b0319831681178455604051919092169283917f8be0079c531659141344cd1fd0a4f28419497f9722a3daafe3b4186f6b6457e09190a35050565b6001600160a01b03811661113757604051636edaef2f60e11b815260040160405180910390fd5b6001600160a01b0381166000908152600960205260408120805461115d906001906117b8565b8154811061116d5761116d6117cb565b9060005260206000200154905060096000836001600160a01b03166001600160a01b031681526020019081526020016000208054806111ae576111ae6117e1565b600082815260208082208301600019908101839055909201909255828252600a815260408083208390556008825280832080546001600160a01b031990811690915560069092528083208054909216909155518291906001600160a01b038516907fddf252ad1be2c89b69c2b068fc378daa952ba7f163c4a11628f55a4df523b3ef908390a45050565b6001600160a01b03811661125f57604051634e46966960e11b815260040160405180910390fd5b60038054600101908190556000818152600860205260409020546001600160a01b0316156112a05760405163119b4fd360e11b815260040160405180910390fd5b600081815260086020908152604080832080546001600160a01b0319166001600160a01b0387169081179091558084526009835290832080546001818101835582865293852001859055925290546112f891906117b8565b6000828152600a602052604080822092909255905182916001600160a01b038516917fddf252ad1be2c89b69c2b068fc378daa952ba7f163c4a11628f55a4df523b3ef908290a45050565b60006020808352835180602085015260005b8181101561137157858101830151858201604001528201611355565b506000604082860101526040601f19601f8301168501019250505092915050565b6000602082840312156113a457600080fd5b5035919050565b80356001600160a01b0381168114610bb257600080fd5b600080604083850312156113d557600080fd5b6113de836113ab565b946020939093013593505050565b634e487b7160e01b600052604160045260246000fd5b60006020828403121561141457600080fd5b813567ffffffffffffffff8082111561142c57600080fd5b818401915084601f83011261144057600080fd5b813581811115611452576114526113ec565b604051601f8201601f19908116603f0116810190838211818310171561147a5761147a6113ec565b8160405282815287602084870101111561149357600080fd5b826020860160208301376000928101602001929092525095945050505050565b6000806000606084860312156114c857600080fd5b6114d1846113ab565b92506114df602085016113ab565b9150604084013590509250925092565b6000806040838503121561150257600080fd5b61150b836113ab565b91506020830135801515811461152057600080fd5b809150509250929050565b60006020828403121561153d57600080fd5b610cbd826113ab565b6020808252825182820181905260009190848201906040850190845b8181101561157e57835183529284019291840191600101611562565b50909695505050505050565b6000806000806000608086880312156115a257600080fd5b6115ab866113ab565b94506115b9602087016113ab565b935060408601359250606086013567ffffffffffffffff808211156115dd57600080fd5b818801915088601f8301126115f157600080fd5b81358181111561160057600080fd5b89602082850101111561161257600080fd5b9699959850939650602001949392505050565b6000806040838503121561163857600080fd5b611641836113ab565b915061164f602084016113ab565b90509250929050565b600181811c9082168061166c57607f821691505b60208210810361168c57634e487b7160e01b600052602260045260246000fd5b50919050565b601f821115610a6f576000816000526020600020601f850160051c810160208610156116bb5750805b601f850160051c820191505b818110156116da578281556001016116c7565b505050505050565b815167ffffffffffffffff8111156116fc576116fc6113ec565b6117108161170a8454611658565b84611692565b602080601f831160018114611745576000841561172d5750858301515b600019600386901b1c1916600185901b1785556116da565b600085815260208120601f198616915b8281101561177457888601518255948401946001909101908401611755565b50858210156117925787850151600019600388901b60f8161c191681555b5050505050600190811b01905550565b634e487b7160e01b600052601160045260246000fd5b818103818111156106cd576106cd6117a2565b634e487b7160e01b600052603260045260246000fd5b634e487b7160e01b600052603160045260246000fd5b60006020828403121561180957600080fd5b81516001600160e01b031981168114610cbd57600080fd5b6001600160a01b038681168252851660208201526040810184905260806060820181905281018290526000828460a0840137600060a0848401015260a0601f19601f85011683010190509695505050505050565b600181815b808511156118b0578160001904821115611896576118966117a2565b808516156118a357918102915b93841c939080029061187a565b509250929050565b6000826118c7575060016106cd565b816118d4575060006106cd565b81600181146118ea57600281146118f457611910565b60019150506106cd565b60ff841115611905576119056117a2565b50506001821b6106cd565b5060208310610133831016604e8410600b8410161715611933575081810a6106cd565b61193d8383611875565b8060001904821115611951576119516117a2565b029392505050565b6000610cbd60ff8416836118b8565b60008261198557634e487b7160e01b600052601260045260246000fd5b50049056fea26469706673582212200577317fa3560afae12aff0116bb7aee62f7c8b242fab91d9bb72ff3d6fe3d9f64736f6c63430008170033","linkReferences":{}},"methodIdentifiers":{"_owned(address,uint256)":"c34eb1c4","_ownedIndex(uint256)":"27bcf48f","_ownerOf(uint256)":"38350541","allowance(address,address)":"dd62ed3e","approve(address,uint256)":"095ea7b3","balanceOf(address)":"70a08231","baseTokenURI()":"d547cfb7","dataURI()":"f28ca1dd","decimals()":"313ce567","getApproved(uint256)":"081812fc","getOwned(address)":"7c688597","isApprovedForAll(address,address)":"e985e9c5","minted()":"4f02c420","name()":"06fdde03","owner()":"8da5cb5b","ownerOf(uint256)":"6352211e","renounceOwnership()":"715018a6","safeTransferFrom(address,address,uint256)":"42842e0e","safeTransferFrom(address,address,uint256,bytes)":"b88d4fde","setApprovalForAll(address,bool)":"a22cb465","setDataURI(string)":"18d217c3","setTokenURI(string)":"e0df5b6f","setWhitelist(address,bool)":"53d6fd59","symbol()":"95d89b41","tokenURI(uint256)":"c87b56dd","totalSupply()":"18160ddd","transfer(address,uint256)":"a9059cbb","transferFrom(address,address,uint256)":"23b872dd","transferOwnership(address)":"f2fde38b","whitelist(address)":"9b19251a"},"id":1}