{"abi":[{"type":"constructor","inputs":[{"name":"_owner","type":"address","internalType":"address"}],"stateMutability":"nonpayable"},{"type":"function","name":"_owned","inputs":[{"name":"","type":"address","internalType":"address"},{"name":"","type":"uint256","internalType":"uint256"}],"outputs":[{"name":"","type":"uint256","internalType":"uint256"}],"stateMutability":"view"},{"type":"function","name":"_ownedIndex","inputs":[{"name":"","type":"uint256","internalType":"uint256"}],"outputs":[{"name":"","type":"uint256","internalType":"uint256"}],"stateMutability":"view"},{"type":"function","name":"_ownerOf","inputs":[{"name":"","type":"uint256","internalType":"uint256"}],"outputs":[{"name":"","type":"address","internalType":"address"}],"stateMutability":"view"},{"type":"function","name":"allowance","inputs":[{"name":"","type":"address","internalType":"address"},{"name":"","type":"address","internalType":"address"}],"outputs":[{"name":"","type":"uint256","internalType":"uint256"}],"stateMutability":"view"},{"type":"function","name":"approve","inputs":[{"name":"spender","type":"address","internalType":"address"},{"name":"amountOrId","type":"uint256","internalType":"uint256"}],"outputs":[{"name":"","type":"bool","internalType":"bool"}],"stateMutability":"nonpayable"},{"type":"function","name":"balanceOf","inputs":[{"name":"","type":"address","internalType":"address"}],"outputs":[{"name":"","type":"uint256","internalType":"uint256"}],"stateMutability":"view"},{"type":"function","name":"baseTokenURI","inputs":[],"outputs":[{"name":"","type":"string","internalType":"string"}],"stateMutability":"view"},{"type":"function","name":"dataURI","inputs":[],"outputs":[{"name":"","type":"string","internalType":"string"}],"stateMutability":"view"},{"type":"function","name":"decimals","inputs":[],"outputs":[{"name":"","type":"uint8","internalType":"uint8"}],"stateMutability":"view"},{"type":"function","name":"getApproved","inputs":[{"name":"","type":"uint256","internalType":"uint256"}],"outputs":[{"name":"","type":"address","internalType":"address"}],"stateMutability":"view"},{"type":"function","name":"getOwned","inputs":[{"name":"owner","type":"address","internalType":"address"}],"outputs":[{"name":"","type":"uint256[]","internalType":"uint256[]"}],"stateMutability":"view"},{"type":"function","name":"isApprovedForAll","inputs":[{"name":"","type":"address","internalType":"address"},{"name":"","type":"address","internalType":"address"}],"outputs":[{"name":"","type":"bool","internalType":"bool"}],"stateMutability":"view"},{"type":"function","name":"minted","inputs":[],"outputs":[{"name":"","type":"uint256","internalType":"uint256"}],"stateMutability":"view"},{"type":"function","name":"name","inputs":[],"outputs":[{"name":"","type":"string","internalType":"string"}],"stateMutability":"view"},{"type":"function","name":"owner","inputs":[],"outputs":[{"name":"","type":"address","internalType":"address"}],"stateMutability":"view"},{"type":"function","name":"ownerOf","inputs":[{"name":"id","type":"uint256","internalType":"uint256"}],"outputs":[{"name":"owner","type":"address","internalType":"address"}],"stateMutability":"view"},{"type":"function","name":"renounceOwnership","inputs":[],"outputs":[],"stateMutability":"nonpayable"},{"type":"function","name":"safeTransferFrom","inputs":[{"name":"from","type":"address","internalType":"address"},{"name":"to","type":"address","internalType":"address"},{"name":"id","type":"uint256","internalType":"uint256"}],"outputs":[],"stateMutability":"nonpayable"},{"type":"function","name":"safeTransferFrom","inputs":[{"name":"from","type":"address","internalType":"address"},{"name":"to","type":"address","internalType":"address"},{"name":"id","type":"uint256","internalType":"uint256"},{"name":"data","type":"bytes","internalType":"bytes"}],"outputs":[],"stateMutability":"nonpayable"},{"type":"function","name":"setApprovalForAll","inputs":[{"name":"operator","type":"address","internalType":"address"},{"name":"approved","type":"bool","internalType":"bool"}],"outputs":[],"stateMutability":"nonpayable"},{"type":"function","name":"setDataURI","inputs":[{"name":"_dataURI","type":"string","internalType":"string"}],"outputs":[],"stateMutability":"nonpayable"},{"type":"function","name":"setNameSymbol","inputs":[{"name":"_name","type":"string","internalType":"string"},{"name":"_symbol","type":"string","internalType":"string"}],"outputs":[],"stateMutability":"nonpayable"},{"type":"function","name":"setTokenURI","inputs":[{"name":"_tokenURI","type":"string","internalType":"string"}],"outputs":[],"stateMutability":"nonpayable"},{"type":"function","name":"setWhitelist","inputs":[{"name":"target","type":"address","internalType":"address"},{"name":"state","type":"bool","internalType":"bool"}],"outputs":[],"stateMutability":"nonpayable"},{"type":"function","name":"symbol","inputs":[],"outputs":[{"name":"","type":"string","internalType":"string"}],"stateMutability":"view"},{"type":"function","name":"tokenURI","inputs":[{"name":"id","type":"uint256","internalType":"uint256"}],"outputs":[{"name":"","type":"string","internalType":"string"}],"stateMutability":"view"},{"type":"function","name":"totalSupply","inputs":[],"outputs":[{"name":"","type":"uint256","internalType":"uint256"}],"stateMutability":"view"},{"type":"function","name":"transfer","inputs":[{"name":"to","type":"address","internalType":"address"},{"name":"amount","type":"uint256","internalType":"uint256"}],"outputs":[{"name":"","type":"bool","internalType":"bool"}],"stateMutability":"nonpayable"},{"type":"function","name":"transferFrom","inputs":[{"name":"from","type":"address","internalType":"address"},{"name":"to","type":"address","internalType":"address"},{"name":"amountOrId","type":"uint256","internalType":"uint256"}],"outputs":[],"stateMutability":"nonpayable"},{"type":"function","name":"transferOwnership","inputs":[{"name":"newOwner","type":"address","internalType":"address"}],"outputs":[],"stateMutability":"nonpayable"},{"type":"function","name":"whitelist","inputs":[{"name":"","type":"address","internalType":"address"}],"outputs":[{"name":"","type":"bool","internalType":"bool"}],"stateMutability":"view"},{"type":"event","name":"Approval","inputs":[{"name":"owner","type":"address","indexed":true,"internalType":"address"},{"name":"spender","type":"address","indexed":true,"internalType":"address"},{"name":"amount","type":"uint256","indexed":false,"internalType":"uint256"}],"anonymous":false},{"type":"event","name":"ApprovalForAll","inputs":[{"name":"owner","type":"address","indexed":true,"internalType":"address"},{"name":"operator","type":"address","indexed":true,"internalType":"address"},{"name":"approved","type":"bool","indexed":false,"internalType":"bool"}],"anonymous":false},{"type":"event","name":"ERC20Transfer","inputs":[{"name":"from","type":"address","indexed":true,"internalType":"address"},{"name":"to","type":"address","indexed":true,"internalType":"address"},{"name":"amount","type":"uint256","indexed":false,"internalType":"uint256"}],"anonymous":false},{"type":"event","name":"ERC721Approval","inputs":[{"name":"owner","type":"address","indexed":true,"internalType":"address"},{"name":"spender","type":"address","indexed":true,"internalType":"address"},{"name":"id","type":"uint256","indexed":true,"internalType":"uint256"}],"anonymous":false},{"type":"event","name":"OwnershipTransferred","inputs":[{"name":"previousOwner","type":"address","indexed":true,"internalType":"address"},{"name":"newOwner","type":"address","indexed":true,"internalType":"address"}],"anonymous":false},{"type":"event","name":"Transfer","inputs":[{"name":"from","type":"address","indexed":true,"internalType":"address"},{"name":"to","type":"address","indexed":true,"internalType":"address"},{"name":"id","type":"uint256","indexed":true,"internalType":"uint256"}],"anonymous":false},{"type":"error","name":"AlreadyExists","inputs":[]},{"type":"error","name":"InvalidRecipient","inputs":[]},{"type":"error","name":"InvalidSender","inputs":[]},{"type":"error","name":"NotFound","inputs":[]},{"type":"error","name":"OwnableInvalidOwner","inputs":[{"name":"owner","type":"address","internalType":"address"}]},{"type":"error","name":"OwnableUnauthorizedAccount","inputs":[{"name":"account","type":"address","internalType":"address"}]},{"type":"error","name":"Unauthorized","inputs":[]},{"type":"error","name":"UnsafeRecipient","inputs":[]}],"bytecode":{"object":"0x60c06040523480156200001157600080fd5b50604051620023af380380620023af833981016040819052620000349162000183565b60405180604001604052806005815260200164135e4d0c0d60da1b8152506040518060400160405280600581526020016413564d0c0d60da1b8152506012612710848060006001600160a01b0316816001600160a01b031603620000b257604051631e4fbdf760e01b81526000600482015260240160405180910390fd5b620000bd8162000133565b506001620000cc86826200025c565b506002620000db85826200025c565b5060ff83166080819052620000f290600a6200043d565b620000fe90836200044e565b60a0525050506001600160a01b03909216600090815260046020526040902069021e19e0c9bab2400000905550620004689050565b600080546001600160a01b038381166001600160a01b0319831681178455604051919092169283917f8be0079c531659141344cd1fd0a4f28419497f9722a3daafe3b4186f6b6457e09190a35050565b6000602082840312156200019657600080fd5b81516001600160a01b0381168114620001ae57600080fd5b9392505050565b634e487b7160e01b600052604160045260246000fd5b600181811c90821680620001e057607f821691505b6020821081036200020157634e487b7160e01b600052602260045260246000fd5b50919050565b601f82111562000257576000816000526020600020601f850160051c81016020861015620002325750805b601f850160051c820191505b8181101562000253578281556001016200023e565b5050505b505050565b81516001600160401b03811115620002785762000278620001b5565b6200029081620002898454620001cb565b8462000207565b602080601f831160018114620002c85760008415620002af5750858301515b600019600386901b1c1916600185901b17855562000253565b600085815260208120601f198616915b82811015620002f957888601518255948401946001909101908401620002d8565b5085821015620003185787850151600019600388901b60f8161c191681555b5050505050600190811b01905550565b634e487b7160e01b600052601160045260246000fd5b600181815b808511156200037f57816000190482111562000363576200036362000328565b808516156200037157918102915b93841c939080029062000343565b509250929050565b600082620003985750600162000437565b81620003a75750600062000437565b8160018114620003c05760028114620003cb57620003eb565b600191505062000437565b60ff841115620003df57620003df62000328565b50506001821b62000437565b5060208310610133831016604e8410600b841016171562000410575081810a62000437565b6200041c83836200033e565b806000190482111562000433576200043362000328565b0290505b92915050565b6000620001ae60ff84168362000387565b808202811582820484141762000437576200043762000328565b60805160a051611f1a6200049560003960006102710152600081816102ee015261112c0152611f1a6000f3fe608060405234801561001057600080fd5b50600436106101e55760003560e01c8063715018a61161010f578063c34eb1c4116100a2578063e0df5b6f11610071578063e0df5b6f146104b6578063e985e9c5146104c9578063f28ca1dd146104f7578063f2fde38b146104ff57600080fd5b8063c34eb1c41461045d578063c87b56dd14610470578063d547cfb714610483578063dd62ed3e1461048b57600080fd5b80639b19251a116100de5780639b19251a14610401578063a22cb46514610424578063a9059cbb14610437578063b88d4fde1461044a57600080fd5b8063715018a6146103c05780637c688597146103c85780638da5cb5b146103e857806395d89b41146103f957600080fd5b8063313ce56711610187578063504334c211610156578063504334c21461036757806353d6fd591461037a5780636352211e1461038d57806370a08231146103a057600080fd5b8063313ce567146102e9578063383505411461032257806342842e0e1461034b5780634f02c4201461035e57600080fd5b806318160ddd116101c357806318160ddd1461026c57806318d217c3146102a157806323b872dd146102b657806327bcf48f146102c957600080fd5b806306fdde03146101ea578063081812fc14610208578063095ea7b314610249575b600080fd5b6101f2610512565b6040516101ff919061171b565b60405180910390f35b61023161021636600461172e565b6006602052600090815260409020546001600160a01b031681565b6040516001600160a01b0390911681526020016101ff565b61025c61025736600461175e565b6105a0565b60405190151581526020016101ff565b6102937f000000000000000000000000000000000000000000000000000000000000000081565b6040519081526020016101ff565b6102b46102af36600461182b565b6106f1565b005b6102b46102c4366004611868565b610709565b6102936102d736600461172e565b600a6020526000908152604090205481565b6103107f000000000000000000000000000000000000000000000000000000000000000081565b60405160ff90911681526020016101ff565b61023161033036600461172e565b6008602052600090815260409020546001600160a01b031681565b6102b4610359366004611868565b610c62565b61029360035481565b6102b46103753660046118a4565b610d37565b6102b4610388366004611908565b610d49565b61023161039b36600461172e565b610d7c565b6102936103ae366004611944565b60046020526000908152604090205481565b6102b4610db7565b6103db6103d6366004611944565b610dcb565b6040516101ff919061195f565b6000546001600160a01b0316610231565b6101f2610e37565b61025c61040f366004611944565b600b6020526000908152604090205460ff1681565b6102b4610432366004611908565b610e44565b61025c61044536600461175e565b610eb0565b6102b46104583660046119a3565b610ec4565b61029361046b36600461175e565b610f87565b6101f261047e36600461172e565b610fb8565b6101f2611042565b610293610499366004611a3e565b600560209081526000928352604080842090915290825290205481565b6102b46104c436600461182b565b61104f565b61025c6104d7366004611a3e565b600760209081526000928352604080842090915290825290205460ff1681565b6101f2611063565b6102b461050d366004611944565b611070565b6001805461051f90611a71565b80601f016020809104026020016040519081016040528092919081815260200182805461054b90611a71565b80156105985780601f1061056d57610100808354040283529160200191610598565b820191906000526020600020905b81548152906001019060200180831161057b57829003601f168201915b505050505081565b600060035482111580156105b45750600082115b1561068b576000828152600860205260409020546001600160a01b031633811480159061060557506001600160a01b038116600090815260076020908152604080832033845290915290205460ff16155b15610622576040516282b42960e81b815260040160405180910390fd5b60008381526006602090815260409182902080546001600160a01b0319166001600160a01b038881169182179092559251868152908416917f8c5be1e5ebec7d5bd14f71427d1e84f3dd0314c0f7b2291e5b200ac8c7c3b925910160405180910390a3506106e7565b3360008181526005602090815260408083206001600160a01b03881680855290835292819020869055518581529192917f8c5be1e5ebec7d5bd14f71427d1e84f3dd0314c0f7b2291e5b200ac8c7c3b925910160405180910390a35b5060015b92915050565b6106f96110b3565b600c6107058282611afb565b5050565b6003548111610bf357610734604051806080016040528060418152602001611de960419139826110e0565b6000818152600860205260409020546001600160a01b0384811691161461076e57604051636edaef2f60e11b815260040160405180910390fd5b6001600160a01b03821661079557604051634e46966960e11b815260040160405180910390fd5b336001600160a01b038416148015906107d257506001600160a01b038316600090815260076020908152604080832033845290915290205460ff16155b80156107f557506000818152600660205260409020546001600160a01b03163314155b15610812576040516282b42960e81b815260040160405180910390fd5b6108766040518060400160405280601d81526020017f63757272656e742062616c616e63654f665b66726f6d5d206973203a2000000081525060046000866001600160a01b03166001600160a01b03168152602001908152602001600020546110e0565b61087e611125565b6001600160a01b038416600090815260046020526040812080549091906108a6908490611bd1565b925050819055506108e76040518060600160405280602b8152602001611eba602b91396001600160a01b0385166000908152600460205260409020546110e0565b61094b6040518060400160405280601b81526020017f63757272656e742062616c616e63654f665b746f5d206973203a20000000000081525060046000856001600160a01b03166001600160a01b03168152602001908152602001600020546110e0565b610953611125565b6001600160a01b038316600090815260046020908152604091829020805490930190925580516060810190915260298082526109ae92611e6c908301396001600160a01b0384166000908152600460205260409020546110e0565b600081815260086020908152604080832080546001600160a01b038088166001600160a01b031992831617909255600684528285208054909116905586168352600990915281208054610a0390600190611bd1565b81548110610a1357610a13611be4565b90600052602060002001549050610a516040518060400160405280600f81526020016e03ab83230ba32b224b21034b9901d1608d1b815250826110e0565b610a81604051806060016040528060218152602001611e2a602191396000848152600a60205260409020546110e0565b6001600160a01b0384166000908152600960209081526040808320858452600a909252909120548154839291908110610abc57610abc611be4565b60009182526020808320909101929092556001600160a01b0386168152600990915260409020805480610af157610af1611bfa565b600082815260208082208301600019908101839055909201909255838252600a8152604080832054848452818420556001600160a01b038616808452600983529083208054600181810183558286529385200186905592529054610b559190611bd1565b6000838152600a602052604080822092909255905183916001600160a01b0380871692908816917fddf252ad1be2c89b69c2b068fc378daa952ba7f163c4a11628f55a4df523b3ef91a4826001600160a01b0316846001600160a01b03167fe59fdd36d0d223c0c7d996db7ad796880f45e1936cb0bb7ac102e7082e031487610bdc611125565b60405190815260200160405180910390a350505050565b6001600160a01b03831660009081526005602090815260408083203384529091529020546000198114610c4f57610c2a8282611bd1565b6001600160a01b03851660009081526005602090815260408083203384529091529020555b610c5a848484611157565b50505b505050565b610c6d838383610709565b6001600160a01b0382163b15801590610d195750604051630a85bd0160e11b8082523360048301526001600160a01b03858116602484015260448301849052608060648401526000608484015290919084169063150b7a029060a4016020604051808303816000875af1158015610ce8573d6000803e3d6000fd5b505050506040513d601f19601f82011682018060405250810190610d0c9190611c10565b6001600160e01b03191614155b15610c5d57604051633da6393160e01b815260040160405180910390fd5b610d3f6110b3565b6107058282611353565b610d516110b3565b6001600160a01b03919091166000908152600b60205260409020805460ff1916911515919091179055565b6000818152600860205260409020546001600160a01b031680610db25760405163c5723b5160e01b815260040160405180910390fd5b919050565b610dbf6110b3565b610dc9600061136c565b565b6001600160a01b038116600090815260096020908152604091829020805483518184028101840190945280845260609392830182828015610e2b57602002820191906000526020600020905b815481526020019060010190808311610e17575b50505050509050919050565b6002805461051f90611a71565b3360008181526007602090815260408083206001600160a01b03871680855290835292819020805460ff191686151590811790915590519081529192917f17307eab39ab6107e8899845ad3d59bd9653f200f220920489ca2b5937696c31910160405180910390a35050565b6000610ebd338484611157565b9392505050565b610ecf858585610709565b6001600160a01b0384163b15801590610f695750604051630a85bd0160e11b808252906001600160a01b0386169063150b7a0290610f199033908a90899089908990600401611c3a565b6020604051808303816000875af1158015610f38573d6000803e3d6000fd5b505050506040513d601f19601f82011682018060405250810190610f5c9190611c10565b6001600160e01b03191614155b15610c5a57604051633da6393160e01b815260040160405180910390fd5b60096020528160005260406000208181548110610fa357600080fd5b90600052602060002001600091509150505481565b6060600d8054610fc790611a71565b80601f0160208091040260200160405190810160405280929190818152602001828054610ff390611a71565b8015610e2b5780601f1061101557610100808354040283529160200191610e2b565b820191906000526020600020905b8154815290600101906020018083116110235750939695505050505050565b600d805461051f90611a71565b6110576110b3565b600d6107058282611afb565b600c805461051f90611a71565b6110786110b3565b6001600160a01b0381166110a757604051631e4fbdf760e01b8152600060048201526024015b60405180910390fd5b6110b08161136c565b50565b6000546001600160a01b03163314610dc95760405163118cdaa760e01b815233600482015260240161109e565b61070582826040516024016110f6929190611c8e565b60408051601f198184030181529190526020810180516001600160e01b0316632d839cb360e21b1790526113bc565b60006111527f0000000000000000000000000000000000000000000000000000000000000000600a611d94565b905090565b600080611162611125565b6001600160a01b038087166000818152600460205260408082208054948a168352908220549282529394509192909186919061119e8386611bd1565b90915550506001600160a01b03861660009081526004602090815260409182902080548801905581516060810190925260238083526111e49291611dc6908301396113c5565b6001600160a01b0387166000908152600b602052604090205460ff1661125d576001600160a01b038716600090815260046020526040812054611228908590611da3565b6112328585611da3565b61123c9190611bd1565b905060005b8181101561125a5761125289611408565b600101611241565b50505b6001600160a01b0386166000908152600b602052604090205460ff166112f95761129e604051806060016040528060258152602001611e95602591396113c5565b60006112aa8483611da3565b6001600160a01b0388166000908152600460205260409020546112ce908690611da3565b6112d89190611bd1565b905060005b818110156112f6576112ee88611530565b6001016112dd565b50505b856001600160a01b0316876001600160a01b03167fe59fdd36d0d223c0c7d996db7ad796880f45e1936cb0bb7ac102e7082e0314878760405161133e91815260200190565b60405180910390a35060019695505050505050565b600161135f8382611afb565b506002610c5d8282611afb565b600080546001600160a01b038381166001600160a01b0319831681178455604051919092169283917f8be0079c531659141344cd1fd0a4f28419497f9722a3daafe3b4186f6b6457e09190a35050565b6110b0816116b4565b6110b0816040516024016113d9919061171b565b60408051601f198184030181529190526020810180516001600160e01b031663104c13eb60e21b1790526113bc565b6001600160a01b03811661142f57604051636edaef2f60e11b815260040160405180910390fd5b6001600160a01b0381166000908152600960205260408120805461145590600190611bd1565b8154811061146557611465611be4565b9060005260206000200154905060096000836001600160a01b03166001600160a01b031681526020019081526020016000208054806114a6576114a6611bfa565b600082815260208082208301600019908101839055909201909255828252600a815260408083208390556008825280832080546001600160a01b031990811690915560069092528083208054909216909155518291906001600160a01b038516907fddf252ad1be2c89b69c2b068fc378daa952ba7f163c4a11628f55a4df523b3ef908390a45050565b611551604051806060016040528060218152602001611e4b602191396113c5565b6001600160a01b03811661157857604051634e46966960e11b815260040160405180910390fd5b600380546001019081905560408051808201909152600c81526b036b4b73a32b21034b9901d160a51b60208201526115af916110e0565b600354604080518082019091526008815267034b21034b9901d160c51b60208201526115db90826110e0565b6000818152600860205260409020546001600160a01b0316156116115760405163119b4fd360e11b815260040160405180910390fd5b600081815260086020908152604080832080546001600160a01b0319166001600160a01b0387169081179091558084526009835290832080546001818101835582865293852001859055925290546116699190611bd1565b6000828152600a602052604080822092909255905182916001600160a01b038516917fddf252ad1be2c89b69c2b068fc378daa952ba7f163c4a11628f55a4df523b3ef908290a45050565b60006a636f6e736f6c652e6c6f679050600080835160208501845afa505050565b6000815180845260005b818110156116fb576020818501810151868301820152016116df565b506000602082860101526020601f19601f83011685010191505092915050565b602081526000610ebd60208301846116d5565b60006020828403121561174057600080fd5b5035919050565b80356001600160a01b0381168114610db257600080fd5b6000806040838503121561177157600080fd5b61177a83611747565b946020939093013593505050565b634e487b7160e01b600052604160045260246000fd5b600082601f8301126117af57600080fd5b813567ffffffffffffffff808211156117ca576117ca611788565b604051601f8301601f19908116603f011681019082821181831017156117f2576117f2611788565b8160405283815286602085880101111561180b57600080fd5b836020870160208301376000602085830101528094505050505092915050565b60006020828403121561183d57600080fd5b813567ffffffffffffffff81111561185457600080fd5b6118608482850161179e565b949350505050565b60008060006060848603121561187d57600080fd5b61188684611747565b925061189460208501611747565b9150604084013590509250925092565b600080604083850312156118b757600080fd5b823567ffffffffffffffff808211156118cf57600080fd5b6118db8683870161179e565b935060208501359150808211156118f157600080fd5b506118fe8582860161179e565b9150509250929050565b6000806040838503121561191b57600080fd5b61192483611747565b91506020830135801515811461193957600080fd5b809150509250929050565b60006020828403121561195657600080fd5b610ebd82611747565b6020808252825182820181905260009190848201906040850190845b818110156119975783518352928401929184019160010161197b565b50909695505050505050565b6000806000806000608086880312156119bb57600080fd5b6119c486611747565b94506119d260208701611747565b935060408601359250606086013567ffffffffffffffff808211156119f657600080fd5b818801915088601f830112611a0a57600080fd5b813581811115611a1957600080fd5b896020828501011115611a2b57600080fd5b9699959850939650602001949392505050565b60008060408385031215611a5157600080fd5b611a5a83611747565b9150611a6860208401611747565b90509250929050565b600181811c90821680611a8557607f821691505b602082108103611aa557634e487b7160e01b600052602260045260246000fd5b50919050565b601f821115610c5d576000816000526020600020601f850160051c81016020861015611ad45750805b601f850160051c820191505b81811015611af357828155600101611ae0565b505050505050565b815167ffffffffffffffff811115611b1557611b15611788565b611b2981611b238454611a71565b84611aab565b602080601f831160018114611b5e5760008415611b465750858301515b600019600386901b1c1916600185901b178555611af3565b600085815260208120601f198616915b82811015611b8d57888601518255948401946001909101908401611b6e565b5085821015611bab5787850151600019600388901b60f8161c191681555b5050505050600190811b01905550565b634e487b7160e01b600052601160045260246000fd5b818103818111156106eb576106eb611bbb565b634e487b7160e01b600052603260045260246000fd5b634e487b7160e01b600052603160045260246000fd5b600060208284031215611c2257600080fd5b81516001600160e01b031981168114610ebd57600080fd5b6001600160a01b038681168252851660208201526040810184905260806060820181905281018290526000828460a0840137600060a0848401015260a0601f19601f85011683010190509695505050505050565b604081526000611ca160408301856116d5565b90508260208301529392505050565b600181815b80851115611ceb578160001904821115611cd157611cd1611bbb565b80851615611cde57918102915b93841c9390800290611cb5565b509250929050565b600082611d02575060016106eb565b81611d0f575060006106eb565b8160018114611d255760028114611d2f57611d4b565b60019150506106eb565b60ff841115611d4057611d40611bbb565b50506001821b6106eb565b5060208310610133831016604e8410600b8410161715611d6e575081810a6106eb565b611d788383611cb0565b8060001904821115611d8c57611d8c611bbb565b029392505050565b6000610ebd60ff841683611cf3565b600082611dc057634e487b7160e01b600052601260045260246000fd5b50049056fe63757272656e746c7920696e73696465205f7472616e736665722066756e6374696f6e63757272656e746c7920696e7369646520616d6f756e744f724964203c3d206d696e74656420636865636b2c2074686520616d6f756e744f724964206973203a2076616c7565206f66205f6f776e6564496e6465785b616d6f756e744f7249643a2063757272656e746c7920696e73696465205f6d696e7428292066756e6374696f6e62616c616e63654f665b746f5d20616674657220746865202b3d205f676574556e6974206973203a2063757272656e746c7920696e73696465202177686974656c6973745b746f5d20636865636b62616c616e63654f665b66726f6d5d20616674657220746865202d3d205f676574556e6974206973203a20a26469706673582212203dd03b6bfec06de3b9940795b28addd772c3ae402d09fbded41544c437db5d9e64736f6c63430008170033","linkReferences":{}},"methodIdentifiers":{"_owned(address,uint256)":"c34eb1c4","_ownedIndex(uint256)":"27bcf48f","_ownerOf(uint256)":"38350541","allowance(address,address)":"dd62ed3e","approve(address,uint256)":"095ea7b3","balanceOf(address)":"70a08231","baseTokenURI()":"d547cfb7","dataURI()":"f28ca1dd","decimals()":"313ce567","getApproved(uint256)":"081812fc","getOwned(address)":"7c688597","isApprovedForAll(address,address)":"e985e9c5","minted()":"4f02c420","name()":"06fdde03","owner()":"8da5cb5b","ownerOf(uint256)":"6352211e","renounceOwnership()":"715018a6","safeTransferFrom(address,address,uint256)":"42842e0e","safeTransferFrom(address,address,uint256,bytes)":"b88d4fde","setApprovalForAll(address,bool)":"a22cb465","setDataURI(string)":"18d217c3","setNameSymbol(string,string)":"504334c2","setTokenURI(string)":"e0df5b6f","setWhitelist(address,bool)":"53d6fd59","symbol()":"95d89b41","tokenURI(uint256)":"c87b56dd","totalSupply()":"18160ddd","transfer(address,uint256)":"a9059cbb","transferFrom(address,address,uint256)":"23b872dd","transferOwnership(address)":"f2fde38b","whitelist(address)":"9b19251a"},"id":1}